:100000000C9434000C943E000C943E000C943E0082
:100010000C943E000C943E000C943E000C943E0068
:100020000C943E000C943E000C943E000C943E0058
:100030000C943E000C943E000C943E000C943E0048
:100040000C943E000C943E000C943E000C943E0038
:100050000C943E000C943E000C943E000C943E0028
:100060000C943E000C943E0011241FBECFEFD8E04C
:10007000DEBFCDBF0E9440000C945A000C940000DB
:10008000539A20E137E240E951E005C0CA010197E7
:10009000F1F72150304021153105C1F75B9A80E11D
:1000A00097E2FA013197F1F70197D9F75B9820E1D0
:0800B00037E2ECCFF894FFCF1A
:00000001FF
